:020000040800F2
:1000000008820020F5020008ED0E0008EF0E00083F
:10001000F30E0008F70E0008FB0E000800000000B9
:100020000000000000000000000000003102000895
:10003000FF0E000800000000850200086D2F000878
:100040000F0300080F0300080F0300080F03000848
:100050000F0300080F0300080F0300080F03000838
:100060000F0300080F0300080F0300080F03000828
:100070000F0300080F0300080F0300080F03000818
:100080000F0300080F0300080F0300080F03000808
:100090000F0300080F0300080F0300080F030008F8
:1000A0000F0300080F0300080F0300080F030008E8
:1000B0000F0300080F0300080F0300080F030008D8
:1000C0000F0300080F0300080F0300080F030008C8
:1000D0000F0300080F0300080F0300080F030008B8
:1000E0000F0300080F0300080F0300080F030008A8
:1000F0000F0300080F0300080F0300080F03000898
:100100000F0300080F0300080F0300080F03000887
:100110000F0300080F0300080F0300080F03000877
:100120000F0300080F0300080F0300080F03000867
:100130000F0300080F0300080F0300080F03000857
:100140000F0300080F0300080F0300080F03000847
:100150000F0300080F0300080F0300080F03000837
:100160000F0300080F0300080F0300080F03000827
:100170000F0300080F0300080F0300080F03000817
:100180000F0300080F03000800F002F800F040F829
:100190000AA090E8000C82448344AAF10107DA45E2
:1001A00001D100F035F8AFF2090EBAE80F0013F0F4
:1001B000010F18BFFB1A43F0010318470434000075
:1001C00024340000103A24BF78C878C1FAD8520706
:1001D00024BF30C830C144BF04680C6070470000C1
:1001E0000023002400250026103A28BF78C1FBD840
:1001F000520728BF30C148BF0B6070471FB503F0DE
:10020000CFF99DE8030003F075F81FBD10B510BDD0
:1002100003F047F91146FFF7F1FF02F04EFF03F03C
:1002200065F903B4FFF7F2FF03BC03F093F9000094
:10023000284B19680868B0E8F04F80F30988BFF3CD
:100240006F8F4FF0000080F31188704700000000AE
:1002500006480068006880F3088862B661B6BFF39C
:100260004F8FBFF36F8F00DF00BF00BF08ED00E0CE
:10027000DFF80C00016841F470010160704700BFB5
:1002800088ED00E0EFF30980BFF36F8F114B1A6820
:100290001EF0100F08BF20ED108A20E9F04F10600B
:1002A00008B44FF0500080F3118801F091FE4FF038
:1002B000000080F3118808BC19680868B0E8F04FA6
:1002C0001EF0100F08BFB0EC108A80F30988BFF34E
:1002D0006F8F704724000020EFF311804FF0500122
:1002E00081F31188704780F311887047EFF3058020
:1002F000704700000948804709480047FEE7FEE7CD
:10030000FEE7FEE7FEE7FEE7FEE7FEE7FEE7FEE7C5
:1003100004480549054A064B704700000F040008D1
:1003200089010008080200200882002008420020FD
:10033000084200200CB5002001900090754800682C
:1003400040F480307349086000BF7248006800F4D0
:10035000003000900198401C0190009818B9019855
:10036000B0F5A04FF1D16B48006810F4003F02D007
:100370000120009001E0002000900098012845D164
:1003800064484030006840F0805062494031086065
:100390006148006840F440405F4908605D480830AB
:1003A00000685C49083108600846006840F4004075
:1003B00008600846006840F4A05008605748091FCC
:1003C0000860081F006840F08070091F086000BFC7
:1003D0005048006810F0007FFAD040F20570504994
:1003E00008604C480830006820F003004949083193
:1003F00008600846006840F00200086000BF4548F9
:100400000830006800F00C000828F8D10CBD10B5C9
:100410004448006840F47000424908603D48006864
:1004200040F001003B49086000203A49083108606B
:10043000384800683C490840364908603B48091D77
:100440000860081F006820F48020091F0860002051
:1004500030490C310860FFF76DFF4FF00060314903
:100460008039086010BD70B50020002202230024EE
:100470000221284D08352D6805F00C0020B1042814
:1004800006D0082834D107E0294D2A4E356033E0E4
:10049000294D284E35602FE01E4D2D1D2D68C5F3CA
:1004A00080541C4D2D1D2D6805F03F0154B1224D87
:1004B000B5FBF1F5174E361D3668C6F3881605FBF9
:1004C00006F209E01A4DB5FBF1F5124E361D3668FD
:1004D000C6F3881605FB06F20E4D2D1D2D68C5F3DB
:1004E00001456D1C6B00B2FBF3F5124E356003E065
:1004F0000F4D104E356000BF00BF064D08352D680A
:10050000C5F303150D4E705D0A4D2D68C540094EAB
:10051000356070BD0038024000700040085440074C
:10052000003C024088ED00E0FFFFF6FE10300024A2
:100530000024F4000000002000127A0004000020D3
:1005400033490143334A1160704770B500210023DD
:100550000F22C47824B32F4C246804F4E064C4F55B
:10056000E064C4F30721C1F10404E3B20A41447812
:100570009C40E1B28478144021430C07210E264CA4
:1005800005786155047804F01F050124AC40057816
:100590006D114FF0E02606EB8505C5F8004109E036
:1005A000047804F01F040125A5401C4C0678761140
:1005B00044F8265070BD1A4A0A400243154B1B1FCF
:1005C0001A60704739B1134A121D12680243114B69
:1005D0001B1D1A6006E00F4A121D126882430D4B64
:1005E0001B1D1A607047042808D14FF0E0210969EB
:1005F00041F004014FF0E022116107E04FF0E021EB
:10060000096921F004014FF0E022116170470000F8
:100610000000FA050CED00E000E400E080E100E0FD
:1006200080FFFF1F10B504469848844208D101217D
:10063000084600F086FB0021012000F082FB76E0F6
:100640009348844208D10121022000F07AFB002166
:10065000022000F076FB6AE08E48844208D1012136
:10066000042000F06EFB0021042000F06AFB5EE035
:100670008948844208D10121082000F062FB002152
:10068000082000F05EFB52E08448844208D101213A
:10069000102000F056FB0021102000F052FB46E035
:1006A0007F48844208D10121202000F04AFB00212C
:1006B000202000F046FB3AE07A48844208D101212C
:1006C000402000F03EFB0021402000F03AFB2EE0ED
:1006D0007548844208D10121802000F032FB0021BE
:1006E000802000F02EFB22E07048844208D10121D6
:1006F000801500F026FB0021A01500F022FB16E07B
:100700006B48844208D10121401500F01AFB0021FA
:10071000601500F016FB0AE06648844207D101210B
:10072000001500F00EFB0021201500F00AFB10BDA3
:10073000F0B50A4600210023002400BF3DE001255A
:1007400005FA01F3156805EA03049C4234D10568F3
:100750004F000326BE40B543056015794E00B540F5
:100760000668354305601579012D02D01579022DF3
:1007700016D185684F000326BE40B5438560557984
:100780004E00B540866835438560456801268E4039
:10079000B5434560456896798E40B6B235434560AD
:1007A000C5684F000326BE40B543C560D5794E00ED
:1007B000B540C6683543C560491C1029BFD3F0BD9C
:1007C0004FF6FF7101600021017141718171C171AA
:1007D000704708B54FF480320092009A0A430092A5
:1007E000009AC261C161009AC261C2690092C26985
:1007F000009208BD0246002013690B4201D001207F
:1008000000E0002070470146086980B27047024648
:10081000002053690B4201D0012000E00020704706
:100820000146486980B27047018370474183704731
:100830000AB1018300E0418370474161704742691A
:100840004A4042617047F0B5002300244D07ED0E89
:1008500002FA05F3CE1000F1200555F826504E0798
:10086000F70E0F26BE40B543CF1000F1200646F824
:100870002750CE1000F1200555F8265045EA030414
:10088000CE1000F1200545F82640F0BD00000240E2
:100890000004024000080240000C02400010024028
:1008A0000014024000180240001C024000200240D8
:1008B0000024024000280240F948006840F001008E
:1008C000F74908600020F64908310860F4480068DC
:1008D000F4490840F2490860F348091D0860F348EC
:1008E000EF4984310860F0481038091D0860EC4871
:1008F000006820F48020EA4908600020E8490C31B3
:100900000860E7498C31086070470021E44A921C76
:10091000117011460870704710B50146002200237F
:1009200000204A11012A02D1DD4C236808E0022A86
:1009300003D1DB4C7034236802E0D94C7434236853
:1009400001F01F02012494401C4201D0012000E06C
:10095000002010BD38B5002000900024002500BF05
:100960003120FFF7D9FF05460098401C0090009801
:10097000B0F5A04F01D0002DF2D03120FFF7CCFF11
:1009800008B1012400E00024204638BD01460020C3
:10099000C34A106820F0F80040EAC10010607047B8
:1009A000C349086070470021BD4A70321170117050
:1009B000012802D004280AD104E00121B84A70328B
:1009C000117005E00521B64A7032117000E000BFD9
:1009D00000BF7047B7490860704770B5049C41EA92
:1009E00082150126C6EB530645EA0645054345EA4E
:1009F0000465AB4E361D356070BDAD490866704765
:100A0000820142EA0172A64B84331A607047A849FA
:100A10008866704710B5830143EA016343EA0273B5
:100A20009F4C8834236010BDA14908677047A049D6
:100A3000C864704702460020994B0833186820F0BC
:100A4000EC6042EA01031843954B08331860704785
:100A500002460020924B0833186820F0784042EAA2
:100A6000010318438E4B083318607047014600207D
:100A70008B4A0832106820F003000843106070476A
:100A800087480830006800F00C00704701460020DD
:100A9000834A0832106820F0F00008431060704765
:100AA000014600207E4A0832106820F4E0500843D6
:100AB0001060704701460020794A0832106820F41F
:100AC000604040EAC10010607047F0B5002100228C
:100AD0000024022500260223714F08373F6807F0E3
:100AE0000C0121B1042905D0082937D105E0724F46
:100AF000076036E0714F076033E0694F3F1D3F6884
:100B0000C7F38056664F3F1D3F6807F03F036EB145
:100B10006A4FB7FBF3F7DFF888C10CF1040CDCF87F
:100B200000C0CCF3881C07FB0CF40CE0624FB7FB51
:100B3000F3F7DFF86CC10CF1040CDCF800C0CCF367
:100B4000881C07FB0CF4564F3F1D3F68C7F3014755
:100B50007F1C7D00B4FBF5F7076002E0564F07608D
:100B600000BF00BF4E4F08373F6807F0F00109098A
:100B7000534F7A5C0768D7404760494F08373F6852
:100B800007F4E051890A4E4F7A5C4768D740876086
:100B9000434F08373F6807F46041490B484F7A5C80
:100BA0004768D740C760F0BD002100F44072B2F53D
:100BB000407F0AD13A4A0832116821F4F811414ABB
:100BC00002401143364A08321160354A70321268C9
:100BD000C0F30B031A43324B70331A607047354928
:100BE00044390860704733494039086070473649D6
:100BF0000860704701460020294A8C32106820F0B6
:100C00001F004A1E1043264A8C321060704701466E
:100C10000020234A8C32106820F4F8504A1E40EA23
:100C200002201F4A8C3210607047014600201C4A87
:100C30008C32106820F44010084310607047014661
:100C40000020174A8C32106820F4400008431060DE
:100C5000704701460020124A8C32106820F4403060
:100C600008431060704719490860704739B10C4A51
:100C70003032126802430A4B30331A6006E0084AE9
:100C8000303212688243064B30331A607047F9B134
:100C9000034A343212680243014B34331A601CE0B9
:100CA00000380240FFFFF6EA103000240030002038
:100CB00000004742800E47420024F40000127A00F0
:100CC00014000020FFFCFF0F5C014742E011474287
:100CD000854A12688243844B1A60704739B1824A50
:100CE000121D12680243804B1B1D1A6006E07E4AEB
:100CF000121D126882437C4B1B1D1A60704739B16C
:100D0000794A0C3212680243774B0C331A6006E0C2
:100D1000754A0C3212688243734B0C331A60704769
:100D200039B1714A1032126802436F4B10331A60A6
:100D300006E06D4A1032126882436B4B10331A6022
:100D4000704739B1684A243A12680243664B243B23
:100D50001A6006E0644A243A12688243624B243BDC
:100D60001A60704739B1604A203A126802435E4BFC
:100D7000203B1A6006E05C4A203A126882435A4BD4
:100D8000203B1A60704739B1574A1C3A1268024337
:100D9000554B1C3B1A6006E0534A1C3A12688243CA
:100DA000514B1C3B1A60704739B14F4A143A1268D4
:100DB00002434D4B143B1A6006E04B4A143A12684A
:100DC0008243494B143B1A60704739B1464A103A86
:100DD00012680243444B103B1A6006E0424A103A44
:100DE00012688243404B103B1A60704739B13E4A4B
:100DF0001C32126802433C4B1C331A6006E03A4A2C
:100E00001C3212688243384B1C331A60704739B168
:100E1000354A203212680243334B20331A6006E011
:100E2000314A2032126882432F4B20331A607047B8
:100E300039B12D4A2432126802432B4B24331A60F5
:100E400006E0294A243212688243274B24331A6071
:100E5000704739B1244A2C3212680243224B2C339A
:100E60001A6006E0204A2C32126882431E4B2C3353
:100E70001A60704739B11C4A3032126802431A4B6B
:100E800030331A6006E0184A303212688243164B3B
:100E900030331A60704739B1134A273A1278024347
:100EA000114B273B1A7006E00F4A273A127882430B
:100EB0000D4B273B1A7070470B484030006840F0DC
:100EC0008070094940310860704701460020064A99
:100ED000283A12680A4201D0012000E00020704741
:100EE000014926390870704734380240704700BF06
:100EF000FEE700BFFEE700BFFEE700BFFEE770476A
:100F000000F1080141604FF0FF31816000F10801FC
:100F1000C1600161002101607047002101617047DB
:100F200042684A6093688B60936859609160086179
:100F300003685B1C0360704710B502460B685C1CBD
:100F400001D1106907E002F1080000E04068446840
:100F500024689C42FAD944684C604C68A16088605F
:100F600041600A611468641C146010BD01460A697E
:100F7000D1E901309860D1E9010358605068884296
:100F800001D188685060002008611068401E106020
:100F9000106870477047FFF79FF900BFFEE7704782
:100FA000FFF79AF900BFFEE770B505460E462C46DE
:100FB0001CB9FFF791F900BFFEE701F0A4FFD4E9E7
:100FC0000F12206801FB020060600020A06320680F
:100FD000A060E06B401E226C216800FB0210E06004
:100FE0004FF0FF306064A06476B9206908B9012031
:100FF00000E0002080B904F1100001F024FB01287A
:101000000AD101F076FF07E004F11000FFF778FF46
:1010100004F12400FFF774FF01F094FF012070BD7C
:101020002DE9F04705460E4617464FF00009DDB1A1
:10103000542001F0E3FF0446B4B105FB06F000F1D3
:101040000108404601F0DAFF2060206848B1E563FE
:10105000266401212046FFF7A7FF84F85070A146BF
:1010600002E0204601F0D9FFB9F1000F03D1FFF7EC
:1010700033F900BFFEE74846BDE8F08710B50446E7
:1010800001F041FF11E0606A08B9012000E0002092
:1010900038B904F1240001F0D6FA18B101F08FFB41
:1010A00000E005E0A06C401EA064A06C0028EADC13
:1010B00000BF4FF0FF30A06401F044FF01F023FFB8
:1010C00011E0206908B9012000E0002050B904F1C6
:1010D000100001F0B8FA08B101F071FB606C401E1D
:1010E000606400E002E0606C0028EADC00BF4FF0C2
:1010F000FF30606401F026FF10BD70B5054601F0B9
:1011000002FFA86BE96B884201D1012400E00024B2
:1011100001F018FF204670BD2DE9F04104460E464F
:1011200015460027206C40B9206878BB606801F044
:10113000B6FB07460020606028E07DB93146226C8E
:10114000A06802F06BF8216CA0680844A060D4E9A4
:10115000011088421AD32068A06017E03146226C43
:10116000E06802F05BF8216CE068401AE0602168FA
:10117000E068884203D2216C6068401AE060022D6A
:1011800004D1A06B10B1A06B401EA063A06B401CEB
:10119000A0633846BDE8F0812DE9FF4383B00646E1
:1011A00088461D464FF0000934461CB9FFF794F8F5
:1011B00000BFFEE7B8F1000F01D1206C08B9012093
:1011C00000E0002018B9FFF787F800BFFEE7022D06
:1011D00002D1E06B012801D1012000E0002018B904
:1011E000FFF77AF800BFFEE701F0FBFA08B90598AF
:1011F00008B9012000E0002018B9FFF76DF800BF22
:10120000FEE700BF01F07FFEA06BE16B884201D3D7
:10121000022D1DD12A4641462046FFF77DFF074695
:10122000606A08B9012000E0002040B904F1240000
:1012300001F009FA012805D101F05BFE02E00FB1CF
:1012400001F057FE01F07EFE012007B0BDE8F083FB
:10125000059818B901F076FE0020F6E7B9F1000F05
:1012600004D101A801F067FA4FF0010901F06AFE0C
:1012700000F09DFD01F047FE606C401C00D16064F1
:10128000A06C401C00D1A06401F05CFE05A901A87F
:1012900001F05FFAC0B92046FFF72FFF70B104F1EB
:1012A0001000059901F038F92046FFF7E7FE00F03D
:1012B000D2FC0028A6D101F01CFEA3E72046FFF7D0
:1012C000DDFE00F0C8FC9DE72046FFF7D7FE00F0EA
:1012D000C2FC0020B9E770B50546542001F08EFE2F
:1012E0000446E4B1002060602060A060E060A0637C
:1012F0000120E06300202064401E6064A06484F844
:10130000505004F11000FFF7FBFD04F12400FFF73B
:10131000F7FD00231A4619462046FFF73DFF1CB98A
:10132000FEF7DAFF00BFFEE7204670BD70B5064647
:1013300034461CB9FEF7D0FF00BFFEE701F04EFABD
:10134000616888420CD1E068401EE060E06828B91E
:1013500000231A4619462046FFF71EFF012500E02C
:101360000025284670BD70B5054601F0CCFDA86B80
:1013700008B9012400E0002401F0E4FD204670BD1E
:1013800070B504460D46206C70B1216CE0680844CD
:10139000E0606168E068884201D32068E060284628
:1013A000226CE16801F03AFF70BD2DE9FF4383B084
:1013B00005460E461F464FF000092C461CB9FEF7A5
:1013C0008BFF00BFFEE70EB9206C08B9012000E0DA
:1013D000002018B9FEF780FF00BFFEE701F001FA18
:1013E00008B9059808B9012000E0002018B9FEF7F7
:1013F00073FF00BFFEE700BF01F085FDA06B90B357
:10140000D4F80C8031462046FFF7BAFFB7B9A06B7D
:10141000401EA063206810B901F0A7FA606020693F
:1014200008B9012000E00020B8B904F1100001F073
:101430000AF9012811D101F05CFD0EE0C4F80C801E
:10144000606A08B9012000E0002030B904F12400EE
:1014500001F0F9F808B101F04CFD01F073FD012035
:1014600007B0BDE8F083FFE7059818B901F06AFD01
:101470000020F5E7B9F1000F04D101A801F05BF9F4
:101480004FF0010901F05EFD00F091FC01F03BFD21
:10149000606C401C00D16064A06C401C00D1A06452
:1014A00001F050FD05A901A801F053F908BB204641
:1014B000FFF759FFB8B1206830B901F024FD60682A
:1014C00001F09BF901F03EFD04F12400059901F0C3
:1014D00023F82046FFF7D2FD00F0BDFB00288BD19A
:1014E00001F007FD88E72046FFF7C8FD00F0B3FBD9
:1014F00082E72046FFF7C2FD00F0ADFB0020AFE71A
:101500002DE9F04106460F4634461CB9FEF7E4FECD
:1015100000BFFEE701F062F96168884204D1E0682B
:10152000401CE06001250BE000233A4619462046A6
:10153000FFF73BFF0546012D02D1E068401CE0604B
:101540002846BDE8F08170B505460E460DB1012074
:1015500000E0002018B9FEF7BFFE00BFFEE7AE4274
:1015600001D8012000E0002018B9FEF7B5FE00BF49
:10157000FEE7022200212846FFF752FD044604B18F
:10158000A6631CB9FEF7A8FE00BFFEE7204670BDAB
:101590002DE9F0470746894615461E463C461CB9CC
:1015A000FEF79AFE00BFFEE7B9F1000F01D1206CF3
:1015B00008B9012000E0002018B9FEF78DFE00BF39
:1015C000FEE7022E02D1E06B012801D1012000E0EC
:1015D000002018B9FEF780FE00BFFEE701F0D5FC41
:1015E000FEF77AFE8246A06BE16B884201D3022EA1
:1015F00020D1324649462046FFF78EFD10B10DB18D
:1016000001202860A06C401C0ED1606A08B901203E
:1016100000E0002058B904F1240001F014F830B1C2
:101620002DB10120286002E0A06C401CA0644FF0A6
:10163000010801E04FF000085046FEF754FE404616
:10164000BDE8F0872DE9F0470546884616462C464A
:101650001CB9FEF741FE00BFFEE7B8F1000F01D153
:10166000206C08B9012000E0002018B9FEF734FE14
:1016700000BFFEE701F089FCFEF72EFE8146A06B5D
:10168000E8B141462046FFF77BFEA06B401EA063F9
:10169000606C401C0ED1206908B9012000E00020D8
:1016A00058B904F1100000F0CEFF30B12EB1012086
:1016B000306002E0606C401C6064012700E000279D
:1016C0004846FEF710FE3846BDE8F0872DE9F047A2
:1016D00005460F462C461CB9FEF7FEFD00BFFEE78F
:1016E0000FB9206C08B9012000E0002018B9FEF7FE
:1016F000F3FD00BFFEE701F048FCFEF7EDFD81467B
:10170000A06B48B1D4F80C8039462046FFF738FE6C
:10171000C4F80C80012600E000264846FEF7E3FDF1
:101720003046BDE8F08770B504461CB9FEF7D4FD1D
:1017300000BFFEE701F0E7FBA56B01F003FC2846C4
:1017400070BD70B5044625461DB9FEF7C5FD00BF46
:10175000FEE701F0D8FBD5E90E10461A01F0F2FBC6
:10176000304670BD70B504461CB9FEF7B5FD00BF2C
:10177000FEE7A56B284670BD014600200BE03C4A01
:1017800002EBC00252688A4204D10022384B43F86F
:10179000302002E0401C0828F1D300BF704770B52C
:1017A00005462C461CB9FEF797FD00BFFEE7204614
:1017B000FFF7E2FF206810B1206801F02EFC204600
:1017C00001F02BFC70BD0146C86C7047C1647047C6
:1017D000014691F85000704770B505461DB9FEF7F7
:1017E0007BFD00BFFEE7A86B08B9012400E00024E0
:1017F000204670BD70B504461CB9FEF76DFD00BFF4
:10180000FEE7A06BE16B884201D1012500E00025D5
:10181000284670BD024600200BE0154B53F83030CF
:1018200033B9134B43F8301003EBC0035A6002E0A6
:10183000401C0828F1D300BF704770B505460E461E
:101840002C4601F060FB606C401C00D16064A06C11
:10185000401C00D1A06401F075FBA06B20B931469B
:1018600004F1240000F0C9FE2046FFF707FC70BD1C
:101870007800002010B5002407E004EB8401FA4A48
:1018800002EB8100FFF73CFB641C052CF5D3F74805
:10189000FFF736FBF648FFF733FBF648FFF730FB60
:1018A000F548FFF72DFBF548FFF72AFBEF48F44911
:1018B0000860EF48F349086010BD2DE9F047044681
:1018C0000F4615469946DDF82080002607E0B95DF1
:1018D00004F134008155B85D00B902E0761C0A2E8F
:1018E000F5D300BF00213D200155052D00D304256F
:1018F000E562A5640020E064201DFFF70EFB04F103
:101900001800FFF70AFB2461C5F10500A0616462BD
:10191000BDE8F08770B505460E46502001F06EFB1D
:10192000044694B11EB9A80001F068FB00E03046FF
:101930002063206B20B9204601F06FFB002404E0F7
:10194000A900A522206B01F0AEFC204670BD2DE958
:10195000FF4F81B0804616469A46DDE90E5BB8F12E
:10196000000F03D1FEF7B8FC00BFFEE7052D01D242
:10197000012000E0002018B9FEF7AEFC00BFFEE732
:1019800030461099FFF7C6FF0446002C5DD0701E4C
:10199000216B01EB800929F0070919F0070F01D12C
:1019A000012000E0002018B9FEF796FC00BFFEE71A
:1019B00000962A462046119B0299FFF77EFF524669
:1019C0004146484601F01AFA2060BBF1000F01D0F1
:1019D000CBF8004001F097FAAB480068401CAA49D8
:1019E0000860AA48006840B9A84804600846006832
:1019F00001280CD1FFF73EFF09E0A548006830B987
:101A0000A2480068C06AA84201D8A0480460A14862
:101A10000068401C9F49086008460068206494F8EC
:101A20002C10012088409C49096808439A490860A5
:101A3000E16A01EB81018C4A02EB8100211DFFF775
:101A40006FFA012701F07EFA01E04FF0FF37012F16
:101A500009D18F48006830B18C480068C06AA8423C
:101A600001D201F046FA384605B0BDE8F08F84494E
:101A70000968096809B9012100E0002121B14FF08E
:101A8000FF31864A116006E07D490968C968C86867
:101A9000824A41681160704770B5054601F033FA1B
:101AA00015B97A48006800E028460446201DFFF773
:101AB0005DFA78B9E06A00EB80006B4951F82000CC
:101AC00040B994F82C10012088407349096881437B
:101AD00071480160A06A18B104F11800FFF746FAD6
:101AE000211D6548FFF71CFA6D480068401C6C49D1
:101AF000086068480068401C6649086001F022FAE6
:101B000063480068B8B16148006884420DD16548F7
:101B1000006808B9012000E0002018B9FEF7DCFBDE
:101B200000BFFEE701F0E5F905E001F0ECF9FFF791
:101B30009EFF01F007FA70BD2DE9F0414FF000085B
:101B400058480068002877D157480068401C56491B
:101B5000086008460668DEB949480068006808B9A8
:101B6000012000E0002018B9FEF7B6FB00BFFEE739
:101B70004348076843480068414908604148076096
:101B80004A480068401C49490860FFF770FF00BFE1
:101B90004248006886423CD300BF3948006800686C
:101BA00008B9012000E0002020B14FF0FF303B4990
:101BB00008602DE032480068C068C4686568AE42BD
:101BC00002D23648056023E0201DFFF7CFF9A06A56
:101BD00018B104F11800FFF7C9F994F82C1001208E
:101BE00088402D49096808432B490860E16A01EBE8
:101BF00081011D4A02EB8100211DFFF791F9234964
:101C0000E06A0968C96A8842C7D34FF00108C4E78F
:101C100000BF1E480068C06A00EB8000124951F8FE
:101C20002000012801D94FF001082148006850B96F
:101C3000FFF7B0F907E0FFE71D480068401C1C49AA
:101C40000860FFF7A7F91B48006808B14FF00108CA
:101C50004046BDE8F08170B500251248006858BBC9
:101C6000FEF73AFB00BFFEE7B80000201C01002091
:101C70003001002044010020580100206C010020A8
:101C800054000020580000202C00002024000020D8
:101C90003800002048000020340000204C000020C4
:101CA00028000020500000203000002044000020C8
:101CB0003C00002040000020FFE701F024F9FE482E
:101CC0000068401EFC4908600846006800284BD1A7
:101CD000FA480068002847D024E0F948C068C46882
:101CE00004F11800FFF742F9201DFFF73FF994F8BF
:101CF0002C1001208840F34909680843F149086025
:101D0000E16A01EB8101F04A02EB8100211DFFF73E
:101D100007F9EE49E06A0968C96A884202D30120DE
:101D2000EB490860E648006808B9012000E000209F
:101D30000028D2D0E748006878B10AE0FFF7FCFE3F
:101D400010B10120E2490860E2480068401EE14904
:101D50000860E04800680028F0D1DD4800680128EC
:101D600002D1012501F0C5F801F0ECF8284670BD5C
:101D700010B50446D54800684460D74800688442DE
:101D800007D2D2480168091DD4480068FFF7D4F88B
:101D90000CE0CE480168091DD1480068FFF7CCF877
:101DA000D0480068844201D2CE48046010BDC248C9
:101DB0000068401CC049086070472DE9F0470446A0
:101DC0000E464FF000091CB9FEF786FA00BFFEE789
:101DD0000EB1012000E0002018B9FEF77DFA00BF27
:101DE000FEE7B548006808B9012000E0002018B9F6
:101DF000FEF772FA00BFFEE7FFF7D9FFB648D0F84A
:101E00000080206885192068404507D92068A842CD
:101E10000BD9454509D94FF0010906E02068A842D1
:101E200001D8454501D94FF001092560B9F1000FEE
:101E300013D0A6480068001DFFF798F850B9A348D2
:101E4000006890F82C10012088409E490968814361
:101E50009C4801602846FFF78BFFFFF7FCFE074612
:101E60000FB901F046F8BDE8F08770B504460026CA
:101E700034B39148006808B9012000E0002018B987
:101E8000FEF72AFA00BFFEE7FFF791FF92480068CD
:101E900005198E480068001DFFF768F850B98B4897
:101EA000006890F82C100120884086490968814319
:101EB000844801602846FFF75BFFFFF7CCFE06462B
:101EC0000EB901F016F870BD70B5044601F01BF8AC
:101ED00014B97E48006800E020460646F56A01F025
:101EE00031F8284670BD2DE9F04780460D464FF089
:101EF0000009052D01D2012000E0002018B9FEF7ED
:101F0000EBF900BFFEE7052D00D3042500F0FBFF31
:101F1000B8F1000F02D16D48006800E04046044669
:101F2000A66CAE4250D0B5420BD9684800688442D6
:101F30000DD066480068C06AA84208D84FF0010971
:101F400005E062480068844201D14FF00109E76A68
:101F5000E16AA06C884200D1E562A564A06910F036
:101F6000004F02D1C5F10500A06107EB8701564A79
:101F700002EB81016069884201D1012000E000206C
:101F8000E0B1201DFEF7F2FF30B90120B8404D4905
:101F9000096881434B48016094F82C100120884067
:101FA00048490968084347490860E16A01EB810133
:101FB000454A02EB8100211DFEF7B2FFB9F1010F86
:101FC00001D100F096FF00BF00F0BCFFBDE8F08734
:101FD00010B53948006818B101203D49086047E054
:101FE00000203B49086039480068006837490968A3
:101FF000096B884205D83548016834310068FEF71E
:10200000CFFF324909681422086B374901F0DAF82A
:1020100028B12E48016834310068FEF7C1FF294815
:102020000068B0FA80F0C0F11F0404EB8400264978
:1020300051F8200008B1012000E0002018B9FEF797
:102040004BF900BFFEE704EB84011F4A02EB81005D
:1020500041684968416000F1080142688A4202D142
:102060004168496841604168C968184A116000BF09
:1020700010BD70B5054600F046FF15B9134800685D
:1020800000E028460446201DFEF770FF78B9E06A9C
:1020900000EB80000C4951F8200040B994F82C1056
:1020A0000120884007490968814306480160A06A09
:1020B000F0B104F1180019E0500000202C000020BD
:1020C0004401002034000020B8000020240000203B
:1020D000400000203C00002030000020580000207C
:1020E000540000204C000020AA350008FEF73EFFF7
:1020F000211DF948FEF714FF00F024FFF74800689F
:1021000084421DD1F648006868B1F648006808B9F5
:10211000012000E0002018B9FEF7DEF800BFFEE75E
:1021200000F0E7FE15E0EC480068EF4909688842D6
:1021300003D10020E94908600BE0FFF749FF08E000
:10214000E748006828B100F0DEFEFFF790FC00F0E1
:10215000F9FE70BD70B5054600262C461DB9FEF788
:10216000BBF800BFFEE7DC496069884201D101206D
:1021700000E0002070B1DD49A06A884201D1012051
:1021800000E0002030B9A06A08B9012000E000207A
:1021900000B10126304670BD70B505462C461DB90C
:1021A000FEF79AF800BFFEE74CB3CC4800688442C3
:1021B00025D000F0A8FE2046FFF7CCFF01281CD157
:1021C000201DFEF7D3FE94F82C1001208840C8494A
:1021D00009680843C6490860E16A01EB8101C54A04
:1021E00002EB8100211DFEF79BFEBC49E06A0968F5
:1021F000C96A884201D300F07CFE00F0A3FE70BDE6
:102200002DE9F041054600262C461DB9FEF764F87D
:1022100000BFFEE700F0B9FEFEF75EF80746204675
:10222000FFF798FF012824D1AE480068E0B9AB4918
:10223000E06A0968C96A884200D30126201DFEF7BA
:1022400095FE94F82C1001208840A949096808439C
:10225000A7490860E16A01EB8101A64A02EB81000F
:10226000211DFEF75DFE04E004F118019F48FEF712
:1022700057FE3846FEF737F83046BDE8F08110B516
:102280000446206B00F0C9FE204600F0C6FE10BDDB
:1022900070B523E0FFF78BFD9748006808B901206F
:1022A00000E000200546FFF7D6FCBDB900F02BFE8C
:1022B0009148C068C468201DFEF758FE8A4800682F
:1022C000401E894908608D480068401E8B4908609F
:1022D00000F038FE2046FFF7D2FF00BF87480068B5
:1022E0000028D7D170BD00BFFFF7D2FF814800683A
:1022F000012801D900F0FDFDFEF751FEF4E71FB5FE
:102300000020009001900290034682227CA103905D
:102310007D48FFF71CFB0446012C02D100F0E9FCCC
:102320000446012C0AD1FDF7D7FF01206C49086053
:1023300000207649086000F07FFD04E01CB9FDF73D
:10234000CBFF00BFFEE71FBD10B5FDF7C5FF0020A6
:102350006349086000F0BEFD10BD10B500F0D3FD6C
:102360006A48046800F0EEFD204610BD70B500F02C
:102370000CFEFDF7B1FF0546644804682846FDF7EA
:10238000B2FF204670BD58480068704702460021E1
:1023900001E0521C491C1078A528FAD0890888B29F
:1023A00070472DE9F04706460C4690460025206808
:1023B00000284BD0204641684968416000F108017F
:1023C00042688A4202D14168496841604168D1F857
:1023D0000C9000BF204641684968416000F1080147
:1023E00042688A4202D14168496841604168CF68C9
:1023F00006EB4510076007F1340006EB4511486015
:10240000386C06EB4511886006EB451080F80C80AF
:10241000F86A06EB45110861B8F1030F05D1B86AF7
:1024200018B1022006EB45110873B86C06EB451194
:102430004861002006EB45118861386BFFF7A6FF65
:1024400006EB451188836D1C4F45C3D12846BDE876
:10245000F0872DE9F04105468846164600240527F9
:10246000FFF7A5FC2048006880452FD300BF7F1EE2
:1024700007EB87021F4B03EB820105EB441001229F
:10248000FFF78FFF0444002FF1D105EB4410022227
:102490001F490968FFF785FF044405EB4410022239
:1024A0001C490968FFF77DFF044405EB4410042232
:1024B0001149FFF776FF044405EB44100322064957
:1024C000FFF76FFF04440EB100203060FFF7C3FB3D
:1024D0002046BDE8F08100006C01002024000020AF
:1024E00038000020500000202C0000204401002073
:1024F00034000020B80000205801002028000020EF
:1025000049444C4500000000E7220008300000204C
:10251000540000205800002070B505460C461DB937
:10252000FDF7DAFE00BFFEE7FD48016818312846D6
:10253000FEF702FDFA480068001DFEF717FD50B9CE
:10254000F748006890F82C1001208840F549096888
:102550008143F4480160601C06D1F1480168091DFF
:10256000F148FEF7DDFC05E0F0480068061930464A
:10257000FFF7FEFB70BD2DE9F04105460E461446FF
:102580001DB9FDF7A9FE00BFFEE7E948006808B1E4
:10259000012000E0002018B9FDF79EFE00BFFEE715
:1025A00046F00040DE4909688861DD48016818315D
:1025B0002846FEF7B5FCDA480068001DFEF7D6FC99
:1025C00050B9D748006890F82C1001208840D549B0
:1025D00009688143D3480160601C06D1D048016876
:1025E000091DD148FEF79CFC05E0D048006807199A
:1025F0003846FFF7BDFBBDE8F08170B504460D46D7
:102600001CB9FDF769FE00BFFEE7C5480168183137
:102610002046FEF785FCC2480068001DFEF7A6FCB8
:1026200050B9BF48006890F82C1001208840BD497F
:1026300009688143BB480160BC48006846193046C0
:10264000FFF796FB70BD70B50646F068C4681CB90C
:10265000FDF742FE00BFFEE704F11800FEF786FC1E
:10266000B3480068A8B9201DFEF780FC94F82C1030
:1026700001208840AB4909680843AA490860E16A1B
:1026800001EB8101AB4A02EB8100211DFEF748FC02
:1026900004E004F11801A848FEF742FCA049E06AF2
:1026A0000968C96A884204D901250120A349086044
:1026B00000E00025284670BD2DE9F04105460F4693
:1026C0009B48006808B1012000E0002018B9FDF720
:1026D00003FE00BFFEE747F000402860EC681CB92D
:1026E000FDF7FAFD00BFFEE72846FEF73FFC201D80
:1026F000FEF73CFC94F82C100120884089490968B9
:10270000084388490860E16A01EB8101894A02EBCC
:102710008100211DFEF704FC8149E06A0968C96A4D
:10272000884204D9012601208449086000E000267F
:102730003046BDE8F08110B504461CB9FDF7CCFD6C
:1027400000BFFEE77E48006820607848006860604F
:1027500010BD2DE9F04104460D461CB9FDF7BCFD46
:1027600000BFFEE71DB9FDF7B7FD00BFFEE700F0B3
:10277000CAFB6E4807682868401C01D1002619E092
:102780006F4920680968884204D06068B84201D85F
:1027900001260FE06068381A2968884209D2286843
:1027A0006168791A401A28602046FFF7C4FF0026A6
:1027B00000E0012600F0C6FB3046BDE8F0810120B4
:1027C0005E4908607047014611B10A46506C00E04E
:1027D0000020704708B102465164704750490868AC
:1027E00070475849096809B9012005E0504909684E
:1027F00009B9022000E00020704770B505462C465C
:10280000002D4BD04649E06A0968C96A884245D222
:10281000A06910F0004F05D141480068C06AC0F1BE
:102820000500A061E16A01EB8101424A02EB8101EE
:102830006069884201D1012000E0002050B3201DD2
:10284000FEF794FB78B9E06A00EB8000394951F853
:10285000200040B994F82C100120884031490968C3
:102860008143304801602E480068C06AE06294F8F5
:102870002C10012088402B49096808432949086029
:10288000E16A01EB81012B4A02EB8100211DFEF779
:1028900047FB03E022480068C06AE06270BD70B583
:1028A00005462C460026002D51D0E06C18B9FDF7E6
:1028B00013FD00BFFEE7E06C401EE064A16CE06A1F
:1028C000884244D0E06C50BB201DFEF74FFB78B926
:1028D000E06A00EB8000174951F8200040B994F8F5
:1028E0002C10012088400F49096881430D48016080
:1028F000A06CE062E06AC0F10500A06194F82C10C1
:102900000120884007490968084306490860E16AD0
:1029100001EB8101074A02EB8100211D14E016E062
:1029200024000020340000206C0100203000002032
:1029300050000020B800002044010020400000208A
:102940004400002038000020FEF7EAFA0126304655
:1029500070BD0C49096888690A490968C96AC1F1EA
:102960000501084A1268916170470648006830B155
:102970000449096801F14C00C96C491C0160014817
:1029800000687047240000202DE9F04104460D4600
:1029900016461F464FF0000865602461B5420CD80A
:1029A000F01BA169884202D34FF0010811E0211DFC
:1029B000F9480068FEF7C0FA0BE0BE4204D2BD42FF
:1029C00002D34FF0010804E0211DF4480068FEF72F
:1029D000B3FA4046BDE8F0812DE9FE4305460C46BA
:1029E00016461F46DDF828804FF00009EC480068C5
:1029F00010B3009401960295062C15DAFFF7F1FE4C
:102A0000022808D1002342466946E5480068FEF7DF
:102A1000C3FB814610E000231A466946E04800687F
:102A2000FEF7BAFB814607E000233A466946DC48D8
:102A30000068FEF7ADFD81464846BDE8FE832DE9FE
:102A4000F8432BE0D5480068C0680568D3480068A3
:102A5000C068C468201DFEF789FA2046616A88476D
:102A6000E06901281AD1A0694619AE4207D966600B
:102A70002461211DC9480068FEF75EFA0EE00020BF
:102A800003462A46014600902046FFF7A5FF074669
:102A90001FB9FDF721FC00BFFEE700BFBF4800687B
:102AA000006808B9012000E000200028CAD0BB4817
:102AB000D0F80080B8480068B8490860B648C0F847
:102AC0000080BDE8F88370B50446FFF746FC054674
:102AD000B4480068854204D2FFF7B1FF01202060AE
:102AE00001E000202060AF480560284670BD70B549
:102AF00086B05DE0039800285ADB059C606908B940
:102B0000012000E0002010B9201DFEF72FFA02A8D6
:102B1000FFF7D9FF054603980A2847D2DFE800F0FF
:102B20000905072B2D4206082C2E00BF00BF00BF51
:102B300000BF0498A269811803462A462046FFF781
:102B400023FF012816D12046616A8847E0690128E1
:102B500010D1002000900498A16942180023194662
:102B60002046FFF739FF06461EB9FDF7B5FB00BF4B
:102B7000FEE700BF1BE000BF19E000BF0498A061A2
:102B8000A06908B1012000E0002018B9FDF7A4FBFE
:102B900000BFFEE7A06941192B462A462046FFF7F1
:102BA000F3FE04E0204600F038FA00E000BF00BF6A
:102BB00000231A4603A97A480068FEF7F6FB0028AE
:102BC00098D106B070BDF8B505460F467348006849
:102BD000C068C468201DFEF7C9F9E069012817D153
:102BE000A06941192B463A462046FFF7CDFE012841
:102BF0000ED1002003462A46014600902046FFF7EA
:102C0000EBFE06461EB9FDF767FB00BFFEE700BFFF
:102C10002046616A8847F8BDF8B504460E46FFF7BE
:102C2000C6F86846FFF74FFF05460098A0B946B9B9
:102C3000AC4206D8FFF70FF829462046FFF7C3FF3E
:102C40000CE0611B56480068FEF7F7FDFFF703F83C
:102C500020B900F04EF901E0FEF7FDFFF8BD014696
:102C60004E4A126812680AB9012200E000220A6086
:102C70000A6822B9494A1268D268106800E0002048
:102C8000704708B500BF6846FFF7E9FF04462046D5
:102C90000099FFF7C1FFFFF72AFFF4E710B500F036
:102CA00032F93F48006808BB3F48FEF729F93F4822
:102CB000FEF726F93C48394908603C483649086027
:102CC00000220C210A20FEF7ABF9354908600846BE
:102CD000006818B9FDF700FB00BFFEE73048006848
:102CE00020B133A12E480068FEF794FD00F02AF9C8
:102CF00010BD1FB50024FFF7D1FF2948006868B157
:102D000000200223CDE90030029003464FF4827286
:102D100029A103902A48FEF71AFE04461CB9FDF7C4
:102D2000DBFA00BFFEE7204604B010BD2DE9F047F6
:102D300006460D4617469846DDF820900DB900244A
:102D400010E02C2000F05AF904465CB1FFF7A6FF12
:102D50002660A561E761C4F82080C4F82490201D96
:102D6000FEF7DBF80DB1012000E0002018B9FDF7F7
:102D7000B3FA00BFFEE72046BDE8F08701460A46E9
:102D80001068704770B50446264600F0BCF87069BC
:102D9000C0B9012017E00000680000206400002096
:102DA0005C000020600000208001002094010020D1
:102DB000546D725100000000546D72205376630010
:102DC000832C0008002080F0010500F0BBF82846A5
:102DD00070BD01460A46106A704700007F480068CF
:102DE000401C01D1012000E0002018B9FDF774FA61
:102DF00000BFFEE7FDF770FA00BFFEE7001F4FF0CF
:102E000080730360001F0160001F754B036014385E
:102E10000260001F6FF002030360203870477148A2
:102E200000684FF47A71B0FBF1F0401E4FF0E021E2
:102E300048610720086170471CB56B480146097856
:102E40000191FF21024611700146097800919DF819
:102E5000001001F05001654A11700721644A1160A9
:102E600009E063490968491E614A11609DF8001034
:102E70004906090E00919DF8001001F0800180299B
:102E8000EFD05B4909680902594A11601146098867
:102E900001F4E0611160544A0199117055480068CD
:102EA00040F47000534908600846006840F07040E4
:102EB0000860FFF7B4FF002048490860FDF7D8F923
:102EC0004D48006840F040404B490860FDF7C0F9AC
:102ED00000201CBD10B541480068B0F57A7F01D1D3
:102EE000012000E0002018B9FDF7F6F900BFFEE769
:102EF00010BD4FF080503F491C390860BFF34F8F21
:102F0000BFF36F8F704710B5FDF7E6F933480068DF
:102F1000401C32490860BFF34F8FBFF36F8F0846E4
:102F2000006801280DD133481C38006810F01F0FCD
:102F300001D1012000E0002018B9FDF7CDF900BF54
:102F4000FEE710BD10B52548006818B9FDF7C4F9B3
:102F500000BFFEE721480068401E2049086008467F
:102F6000006810B90020FDF7BEF910BD10B5FDF7DF
:102F7000B3F9FEF7E1FD20B14FF080501D491C3937
:102F800008600020FDF7AFF910BD70B5FDF7AEF990
:102F90000446102C10D34FF0E020204490F8F0535A
:102FA00012480078854201DB012000E0002018B9BA
:102FB000FDF792F900BFFEE70E481438006800F4F0
:102FC000E0600B490968884201D8012000E0002038
:102FD00018B9FDF781F900BFFEE770BD6C00002055
:102FE000DD2D00080000002000E400E0700000205B
:102FF0007400002020ED00E034EF00E070B50546DD
:10300000FEF7D5FE284600F087F80446FEF723FEBB
:103010000CB9FDF7C0FF204670BD10B5044634B1B1
:10302000FEF7C5FE204600F0A6F8FEF714FE10BD20
:103030001CB501218020FDF719FE0C200090012015
:103040008DF8040000208DF806008DF8070003209D
:103050008DF8050069462B48FDF76AFB1CBD00246E
:1030600000BF14F0010F04D108212648FDF7DCFB56
:1030700006E014F0010F03D008212248FDF7D6FB2B
:103080004FF4FA70FEF7F1FE641CEAE7002400BF7B
:1030900014F0010F04D104211A48FDF7C5FB06E026
:1030A00014F0010F03D004211648FDF7BFFB4FF4C5
:1030B0007A70FEF7DAFE641CEAE71FB5FFF7B8FF87
:1030C0004FF44070FDF73CFA00200123CDE90030B9
:1030D0000290034682220CA10390AFF24F00FEF74C
:1030E00036FC00200223CDE9003002900346822204
:1030F00007A10390AFF29900FEF729FCFFF7FFF854
:1031000000BFFEE7001C02404C45443100000000B7
:103110004C4544320000000070B5064600F0CEF881
:10312000056806F10B0020F00704B4429CBF0020A4
:1031300070BD2B466A68BAB11068A04210D304F182
:10314000080188423CBF5068586007D35168101985
:1031500041601168091B016058601460101D70BD4A
:1031600013465268002AE7D12146284600F0AEF8FF
:103170000028DED170BD70B50446051F00F09EF832
:103180000068002C14BF446870BD002C18BFAC420E
:103190003CBF20466468F8D301680A18AA4218BFE9
:1031A000456003D12A680546114401602868411929
:1031B000A1421CBF6C6070BD6168696021680844F1
:1031C000286070BD40EA010310B59B070FD1042AA7
:1031D0000DD310C808C9121F9C42F8D020BA19BAE2
:1031E000884201D9012010BD4FF0FF3010BD1AB147
:1031F000D30703D0521C07E0002010BD10F8013B9C
:1032000011F8014B1B1B07D110F8013B11F8014BC2
:103210001B1B01D1921EF1D1184610BD032A40F2AA
:10322000308010F0030C00F0158011F8013BBCF168
:10323000020F624498BF11F801CB00F8013B38BF80
:1032400011F8013BA2F1040298BF00F801CB38BF8E
:1032500000F8013B11F0030300F08280083AC0F04F
:10326000088051F8043B083A51F804CBA0E8081054
:10327000F5E7121D5CBF51F8043B40F8043BAFF387
:103280000080D20724BF11F8013B11F801CB48BFE1
:1032900011F8012B24BF00F8013B00F801CB48BF17
:1032A00000F8012B704702F0FF0343EA032242EAD1
:1032B000024200F089B87047704770470048704775
:1032C000B0010020704770477047704738B504461A
:1032D0000A4600206946AFF30080002808BF38BDC9
:1032E00002460099204600F093F8012038BD0120E5
:1032F00000F0A8B8F8B5AFF30080054600200C46F2
:10330000102000BF0646A819A0420DD932466946D2
:103310000020AFF30080070008BF00F093F800988A
:10332000A04218BF0546C419FFF7C8FF056007464D
:10333000F01D20F007004619284600F00AF8B442B4
:1033400008BFF8BDA21B31463868BDE8F84000F060
:103350005FB800210160C0E901107047102070477C
:1033600010B5203AC0F00B80B1E81850203AA0E820
:103370001850B1E81850A0E81850BFF4F5AF5FEA54
:10338000027C24BFB1E81850A0E8185044BF18C907
:1033900018C0BDE810405FEA827C24BF51F8043BAE
:1033A00040F8043B08BF7047D20728BF31F8023B02
:1033B00048BF11F8012B28BF20F8023B48BF00F896
:1033C000012B70474FF000020429C0F0128010F06A
:1033D000030C00F04080CCF1040CBCF1020F18BFCC
:1033E00000F8012BA8BF20F8022BA1EB0C0100F084
:1033F00032B85FEAC17C24BF00F8012B00F8012B32
:1034000048BF00F8012B704700487047A801002012
:10341000034640688C46002818BF88423CBF0346DC
:103420004068F8D318681844884207D00CF10300AC
:1034300020F00700001D411A521A0146081D0A60BB
:10344000FFF799BE10B500F05DF8BDE8104000F040
:1034500053B84FF0000200B5134694469646203903
:1034600022BFA0E80C50A0E80C50B1F12001BFF43D
:10347000F7AF090728BFA0E80C5048BF0CC05DF8A3
:1034800004EB890028BF40F8042B08BF704748BFF1
:1034900020F8022B11F0804F18BF00F8012B704765
:1034A00070477546FFF7B0FFAE46050069465346C4
:1034B00020F00700854618B020B5FCF729FFBDE8CD
:1034C00020404FF000064FF000074FF000084FF08B
:1034D000000B21F00701AC46ACE8C009ACE8C0091C
:1034E000ACE8C009ACE8C0098D4670470446AFF3AC
:1034F00000802046FCF795FE002801D000F02AB895
:103500007047000010B5012805D0002103A000F08D
:1035100027F8012010BD09A1F8E7000053494752E0
:10352000544D454D3A204F7574206F662068656193
:1035300070206D656D6F7279000000003A2048655B
:103540006170206D656D6F727920636F7272757036
:103550007465640001491820ABBEFEE72600020036
:1035600070B505460C460A2000E06D1C00F011F80D
:1035700035B128780028F8D102E0641C00F009F881
:1035800014B120780028F8D1BDE870400A20AFF3CC
:10359000008008B569468DF800000320ABBE08BD69
:1035A0004FF04070E1EE100A7047A5A5A5A5A5A5AE
:1035B000A5A5A5A5A5A5A5A5A5A5A5A5A5A5000005
:1035C000E03500080000002078000000C401000879
:1035D000583600087800002090810000E0010008C3
:1035E000007A030A0000000000000000010203044A
:1035F0000607080900000000010203040102030499
:10360000060708090000000000000000000000009C
:1036100000000000000000000000000000000000AA
:10362000000000000000000000000000FFFFFFFF9E
:10363000000000000000000000000000000000008A
:10364000000000000000000000000000AAAAAAAAD2
:08365000000000000000000072
:040000050800018965
:00000001FF
